1  01020     01060229971807300245 0010005962001713       COMPUAIDS INC   CAD    
5                                              460ACCOUNTPAY180630              
6C 0004324065006267          0001689517DP0246-00    Ioulia Doumkina@en          
6C 0004405116024812          0001285604DP0246-01    Dany Laberge@en             
6C 0004405116024812          0000316618DP0246-02    Dany Laberge@en             
74600000030000000000                    000003291739                            
9000001000003                                                                   