1  01020     01060229971806050244 0010005962001713       COMPUAIDS INC   CAD    
5                                              460ACCOUNTPAY180515              
6C 0003017281007905          0001394998DP0245-00    Alfonso Maldonado           
6C 0004329061675224243       0001582000DP0245-01    Libi Slepoy                 
6C 0004329066296233          0001672965DP0245-02    Pierre Lefebvre             
6C 0001325211998554          0001819125DP0245-03    Yannick De Meulemeeste      
6C 0003037421006972          0000870100DP0245-04    Damion Fusco                
6C 00025132633413            0000839025DP0245-05    Jeff Greco                  
6C 0003003721009760          0001791050DP0245-06    Larry Sullivan              
6C 0004328265236775          0001921113DP0245-07    Nima Laali                  
74600000080000000000                    000011890376                            
9000001000008                                                                   