1  01020     01060229971806120240 0010005962001713       COMPUAIDS INC   CAD    
5                                              460ACCOUNTPAY180615              
6C 0004005025207778          0002942297DP0241-00    eNet4S Software Soluti      
6C 0004329061675224243       0001740200DP0241-01    Libi Slepoy                 
6C 0010001869252614          0000037121DP0241-02    Steeve Laberge              
6C 0010001869252614          0001621590DP0241-03    Steeve Laberge              
6C 0010001869252614          0000909262DP0241-04    Steeve Laberge              
6C 0003017281007905          0001379604DP0241-05    Alfonso Maldonado           
6C 0004329066296233          0001115310DP0241-06    Pierre Lefebvre             
6C 0003003721009760          0001666750DP0241-07    Larry Sullivan              
6C 0004328265236775          0001882691DP0241-08    Nima Laali                  
6C 0001325211998554          0001299375DP0241-09    Yannick De Meulemeeste      
74600000100000000000                    000014594200                            
9000001000010                                                                   