1  01020     01060229971806060240 0010005962001713       COMPUAIDS INC   CAD    
5                                              460ACCOUNTPAY180515              
6C 0004005025207778          0001946843DP0241-00    eNet4S Software Soluti      
6C 0004005025207778          0003080987DP0241-01    eNet4S Software Soluti      
6C 0010001869252614          0000082490DP0241-02    Steeve Laberge              
6C 0010001869252614          0000781761DP0241-03    Steeve Laberge              
6C 0010001869252614          0000095259DP0241-04    Steeve Laberge              
6C 0010001869252614          0001154942DP0241-05    Steeve Laberge              
6C 0003017281007905          0001394998DP0241-06    Alfonso Maldonado           
6C 0004329061675224243       0001582000DP0241-07    Libi Slepoy                 
6C 0004329066296233          0001672965DP0241-08    Pierre Lefebvre             
6C 0001325211998554          0001819125DP0241-09    Yannick De Meulemeeste      
6C 0003037421006972          0000870100DP0241-10    Damion Fusco                
6C 00025132633413            0000839025DP0241-11    Jeff Greco                  
6C 0003003721009760          0001791050DP0241-12    Larry Sullivan              
6C 0004328265236775          0001921113DP0241-13    Nima Laali                  
74600000140000000000                    000019032658                            
9000001000014                                                                   