1  01020     01060229971806050240 0010005962001713       COMPUAIDS INC   CAD    
5                                              460ACCOUNTPAY180515              
6C 0010001869252614          0001154942DP0241-00    Steeve Laberge              
6C 0003017281007905          0001394998DP0241-01    Alfonso Maldonado           
6C 0004329061675224243       0001582000DP0241-02    Libi Slepoy                 
6C 0004329066296233          0001672965DP0241-03    Pierre Lefebvre             
6C 0001325211998554          0001819125DP0241-04    Yannick De Meulemeeste      
6C 0003037421006972          0000870100DP0241-05    Damion Fusco                
6C 00025132633413            0000839025DP0241-06    Jeff Greco                  
6C 0003003721009760          0001791050DP0241-07    Larry Sullivan              
6C 0004328265236775          0001921113DP0241-08    Nima Laali                  
74600000090000000000                    000013045318                            
9000001000009                                                                   