1  01020     01060229971806040240 0010005962001713       COMPUAIDS INC   CAD    
5                                              460ACCOUNTPAY180515              
6C 0003017281007905          0013949.98DP0241-00    Alfonso Maldonado           
6C 0004329061675224243       00015820.0DP0241-01    Libi Slepoy                 
6C 0004329066296233          0016729.65DP0241-02    Pierre Lefebvre             
6C 0001325211998554          0018191.25DP0241-03    Yannick De Meulemeeste      
6C 0003037421006972          00008701.0DP0241-04    Damion Fusco                
6C 00025132633413            0008390.25DP0241-05    Jeff Greco                  
6C 0003003721009760          00017910.5DP0241-06    Larry Sullivan              
6C 0004328265236775          0019211.13DP0241-07    Nima Laali                  
74600000080000000000                    000000118901                            
9000001000008                                                                   